{
  "contractName": "VotingSystem",
  "abi": [
    {
      "inputs": [
        {
          "internalType": "uint256",
          "name": "_durationInMinutes",
          "type": "uint256"
        }
      ],
      "stateMutability": "nonpayable",
      "type": "constructor"
    },
    {
      "anonymous": false,
      "inputs": [
        {
          "indexed": true,
          "internalType": "uint256",
          "name": "candidateId",
          "type": "uint256"
        }
      ],
      "name": "VotedEvent",
      "type": "event"
    },
    {
      "inputs": [
        {
          "internalType": "uint256",
          "name": "",
          "type": "uint256"
        }
      ],
      "name": "candidates",
      "outputs": [
        {
          "internalType": "uint256",
          "name": "id",
          "type": "uint256"
        },
        {
          "internalType": "string",
          "name": "name",
          "type": "string"
        },
        {
          "internalType": "uint256",
          "name": "voteCount",
          "type": "uint256"
        }
      ],
      "stateMutability": "view",
      "type": "function",
      "constant": true
    },
    {
      "inputs": [],
      "name": "candidatesCount",
      "outputs": [
        {
          "internalType": "uint256",
          "name": "",
          "type": "uint256"
        }
      ],
      "stateMutability": "view",
      "type": "function",
      "constant": true
    },
    {
      "inputs": [],
      "name": "endTime",
      "outputs": [
        {
          "internalType": "uint256",
          "name": "",
          "type": "uint256"
        }
      ],
      "stateMutability": "view",
      "type": "function",
      "constant": true
    },
    {
      "inputs": [],
      "name": "startTime",
      "outputs": [
        {
          "internalType": "uint256",
          "name": "",
          "type": "uint256"
        }
      ],
      "stateMutability": "view",
      "type": "function",
      "constant": true
    },
    {
      "inputs": [
        {
          "internalType": "address",
          "name": "",
          "type": "address"
        }
      ],
      "name": "voters",
      "outputs": [
        {
          "internalType": "bool",
          "name": "",
          "type": "bool"
        }
      ],
      "stateMutability": "view",
      "type": "function",
      "constant": true
    },
    {
      "inputs": [
        {
          "internalType": "uint256",
          "name": "_candidateId",
          "type": "uint256"
        }
      ],
      "name": "vote",
      "outputs": [],
      "stateMutability": "nonpayable",
      "type": "function"
    },
    {
      "inputs": [],
      "name": "getAllCandidates",
      "outputs": [
        {
          "components": [
            {
              "internalType": "uint256",
              "name": "id",
              "type": "uint256"
            },
            {
              "internalType": "string",
              "name": "name",
              "type": "string"
            },
            {
              "internalType": "uint256",
              "name": "voteCount",
              "type": "uint256"
            }
          ],
          "internalType": "struct VotingSystem.Candidate[]",
          "name": "",
          "type": "tuple[]"
        }
      ],
      "stateMutability": "view",
      "type": "function",
      "constant": true
    },
    {
      "inputs": [],
      "name": "getCurrentLeader",
      "outputs": [
        {
          "internalType": "string",
          "name": "",
          "type": "string"
        }
      ],
      "stateMutability": "view",
      "type": "function",
      "constant": true
    }
  ],
  "bytecode": "0x608060405260006002553480156200001657600080fd5b50604051620014783803806200147883398181016040528101906200003c9190620001b8565b42600381905550603c8162000052919062000219565b60035462000061919062000264565b600481905550620000ad6040518060400160405280600381526020017f426f620000000000000000000000000000000000000000000000000000000000815250620000fa60201b60201c565b620000f36040518060400160405280600581526020017f416c696365000000000000000000000000000000000000000000000000000000815250620000fa60201b60201c565b5062000643565b600260008154809291906200010f906200029f565b919050555060405180606001604052806002548152602001828152602001600081525060008060025481526020019081526020016000206000820151816000015560208201518160010190816200016791906200055c565b506040820151816002015590505050565b600080fd5b6000819050919050565b62000192816200017d565b81146200019e57600080fd5b50565b600081519050620001b28162000187565b92915050565b600060208284031215620001d157620001d062000178565b5b6000620001e184828501620001a1565b91505092915050565b7f4e487b7100000000000000000000000000000000000000000000000000000000600052601160045260246000fd5b600062000226826200017d565b915062000233836200017d565b925082820262000243816200017d565b915082820484148315176200025d576200025c620001ea565b5b5092915050565b600062000271826200017d565b91506200027e836200017d565b9250828201905080821115620002995762000298620001ea565b5b92915050565b6000620002ac826200017d565b91507fffffffffffffffffffffffffffffffffffffffffffffffffffffffffffffffff8203620002e157620002e0620001ea565b5b600182019050919050565b600081519050919050565b7f4e487b7100000000000000000000000000000000000000000000000000000000600052604160045260246000fd5b7f4e487b7100000000000000000000000000000000000000000000000000000000600052602260045260246000fd5b600060028204905060018216806200036e57607f821691505b60208210810362000384576200038362000326565b5b50919050565b60008190508160005260206000209050919050565b60006020601f8301049050919050565b600082821b905092915050565b600060088302620003ee7fffffffffffffffffffffffffffffffffffffffffffffffffffffffffffffffff82620003af565b620003fa8683620003af565b95508019841693508086168417925050509392505050565b6000819050919050565b60006200043d6200043762000431846200017d565b62000412565b6200017d565b9050919050565b6000819050919050565b62000459836200041c565b62000471620004688262000444565b848454620003bc565b825550505050565b600090565b6200048862000479565b620004958184846200044e565b505050565b5b81811015620004bd57620004b16000826200047e565b6001810190506200049b565b5050565b601f8211156200050c57620004d6816200038a565b620004e1846200039f565b81016020851015620004f1578190505b6200050962000500856200039f565b8301826200049a565b50505b505050565b600082821c905092915050565b6000620005316000198460080262000511565b1980831691505092915050565b60006200054c83836200051e565b9150826002028217905092915050565b6200056782620002ec565b67ffffffffffffffff811115620005835762000582620002f7565b5b6200058f825462000355565b6200059c828285620004c1565b600060209050601f831160018114620005d45760008415620005bf578287015190505b620005cb85826200053e565b8655506200063b565b601f198416620005e4866200038a565b60005b828110156200060e57848901518255600182019150602085019450602081019050620005e7565b868310156200062e57848901516200062a601f8916826200051e565b8355505b6001600288020188555050505b505050505050565b610e2580620006536000396000f3fe608060405234801561001057600080fd5b50600436106100885760003560e01c80633477ee2e1161005b5780633477ee2e1461010357806378e9792514610135578063a3ec138d14610153578063e868ba701461018357610088565b80630121b93f1461008d5780632d35a8a2146100a95780632e6997fe146100c75780633197cbb6146100e5575b600080fd5b6100a760048036038101906100a29190610787565b6101a1565b005b6100b1610384565b6040516100be91906107c3565b60405180910390f35b6100cf61038a565b6040516100dc919061098f565b60405180910390f35b6100ed6104fe565b6040516100fa91906107c3565b60405180910390f35b61011d60048036038101906101189190610787565b610504565b60405161012c939291906109fb565b60405180910390f35b61013d6105b6565b60405161014a91906107c3565b60405180910390f35b61016d60048036038101906101689190610a97565b6105bc565b60405161017a9190610adf565b60405180910390f35b61018b6105dc565b6040516101989190610afa565b60405180910390f35b60035442101580156101b557506004544211155b6101f4576040517f08c379a00000000000000000000000000000000000000000000000000000000081526004016101eb90610b8e565b60405180910390fd5b600160003373ffffffffffffffffffffffffffffffffffffffff1673ffffffffffffffffffffffffffffffffffffffff16815260200190815260200160002060009054906101000a900460ff1615610281576040517f08c379a000000000000000000000000000000000000000000000000000000000815260040161027890610bfa565b60405180910390fd5b60008111801561029357506002548111155b6102d2576040517f08c379a00000000000000000000000000000000000000000000000000000000081526004016102c990610c66565b60405180910390fd5b60018060003373ffffffffffffffffffffffffffffffffffffffff1673ffffffffffffffffffffffffffffffffffffffff16815260200190815260200160002060006101000a81548160ff021916908315150217905550600080828152602001908152602001600020600201600081548092919061034f90610cb5565b9190505550807fe447c5464cb203c1da94b4db8588d3cbf313ce4a489122f6b88e87f465b2810e60405160405180910390a250565b60025481565b6060600060025467ffffffffffffffff8111156103aa576103a9610cfd565b5b6040519080825280602002602001820160405280156103e357816020015b6103d061072b565b8152602001906001900390816103c85790505b5090506000600190505b60025481116104f6576000808281526020019081526020016000206040518060600160405290816000820154815260200160018201805461042d90610d5b565b80601f016020809104026020016040519081016040528092919081815260200182805461045990610d5b565b80156104a65780601f1061047b576101008083540402835291602001916104a6565b820191906000526020600020905b81548152906001019060200180831161048957829003601f168201915b50505050508152602001600282015481525050826001836104c79190610d8c565b815181106104d8576104d7610dc0565b5b602002602001018190525080806104ee90610cb5565b9150506103ed565b508091505090565b60045481565b600060205280600052604060002060009150905080600001549080600101805461052d90610d5b565b80601f016020809104026020016040519081016040528092919081815260200182805461055990610d5b565b80156105a65780601f1061057b576101008083540402835291602001916105a6565b820191906000526020600020905b81548152906001019060200180831161058957829003601f168201915b5050505050908060020154905083565b60035481565b60016020528060005260406000206000915054906101000a900460ff1681565b60606000806000600190505b600254811161063d578260008083815260200190815260200160002060020154111561062a576000808281526020019081526020016000206002015492508091505b808061063590610cb5565b9150506105e8565b5060008103610685576040518060400160405280601281526020017f4e6f20766f74657320636173742079657421000000000000000000000000000081525092505050610728565b60008082815260200190815260200160002060010180546106a590610d5b565b80601f01602080910402602001604051908101604052809291908181526020018280546106d190610d5b565b801561071e5780601f106106f35761010080835404028352916020019161071e565b820191906000526020600020905b81548152906001019060200180831161070157829003601f168201915b5050505050925050505b90565b60405180606001604052806000815260200160608152602001600081525090565b600080fd5b6000819050919050565b61076481610751565b811461076f57600080fd5b50565b6000813590506107818161075b565b92915050565b60006020828403121561079d5761079c61074c565b5b60006107ab84828501610772565b91505092915050565b6107bd81610751565b82525050565b60006020820190506107d860008301846107b4565b92915050565b600081519050919050565b600082825260208201905092915050565b6000819050602082019050919050565b61081381610751565b82525050565b600081519050919050565b600082825260208201905092915050565b60005b83811015610853578082015181840152602081019050610838565b60008484015250505050565b6000601f19601f8301169050919050565b600061087b82610819565b6108858185610824565b9350610895818560208601610835565b61089e8161085f565b840191505092915050565b60006060830160008301516108c1600086018261080a565b50602083015184820360208601526108d98282610870565b91505060408301516108ee604086018261080a565b508091505092915050565b600061090583836108a9565b905092915050565b6000602082019050919050565b6000610925826107de565b61092f81856107e9565b935083602082028501610941856107fa565b8060005b8581101561097d578484038952815161095e85826108f9565b94506109698361090d565b925060208a01995050600181019050610945565b50829750879550505050505092915050565b600060208201905081810360008301526109a9818461091a565b905092915050565b600082825260208201905092915050565b60006109cd82610819565b6109d781856109b1565b93506109e7818560208601610835565b6109f08161085f565b840191505092915050565b6000606082019050610a1060008301866107b4565b8181036020830152610a2281856109c2565b9050610a3160408301846107b4565b949350505050565b600073ffffffffffffffffffffffffffffffffffffffff82169050919050565b6000610a6482610a39565b9050919050565b610a7481610a59565b8114610a7f57600080fd5b50565b600081359050610a9181610a6b565b92915050565b600060208284031215610aad57610aac61074c565b5b6000610abb84828501610a82565b91505092915050565b60008115159050919050565b610ad981610ac4565b82525050565b6000602082019050610af46000830184610ad0565b92915050565b60006020820190508181036000830152610b1481846109c2565b905092915050565b7f566f74696e67206973206e6f7420616c6c6f776564206174207468697320746960008201527f6d652e0000000000000000000000000000000000000000000000000000000000602082015250565b6000610b786023836109b1565b9150610b8382610b1c565b604082019050919050565b60006020820190508181036000830152610ba781610b6b565b9050919050565b7f596f75206861766520616c726561647920766f74656400000000000000000000600082015250565b6000610be46016836109b1565b9150610bef82610bae565b602082019050919050565b60006020820190508181036000830152610c1381610bd7565b9050919050565b7f596f75206861766520656e746572656420616e20696e76616c69642049640000600082015250565b6000610c50601e836109b1565b9150610c5b82610c1a565b602082019050919050565b60006020820190508181036000830152610c7f81610c43565b9050919050565b7f4e487b7100000000000000000000000000000000000000000000000000000000600052601160045260246000fd5b6000610cc082610751565b91507fffffffffffffffffffffffffffffffffffffffffffffffffffffffffffffffff8203610cf257610cf1610c86565b5b600182019050919050565b7f4e487b7100000000000000000000000000000000000000000000000000000000600052604160045260246000fd5b7f4e487b7100000000000000000000000000000000000000000000000000000000600052602260045260246000fd5b60006002820490506001821680610d7357607f821691505b602082108103610d8657610d85610d2c565b5b50919050565b6000610d9782610751565b9150610da283610751565b9250828203905081811115610dba57610db9610c86565b5b92915050565b7f4e487b7100000000000000000000000000000000000000000000000000000000600052603260045260246000fdfea26469706673582212209bf6abd7184f1ca175dde94a220646b49ab7316085868ad165fc2c876a7d3b2a64736f6c63430008130033",
  "immutableReferences": {},
  "source": "// pragma solidity ^0.8.0;\r\n\r\n\r\n// contract VotingSystem {\r\n    \r\n//     struct Candidate {\r\n//         uint id;\r\n//         string name;\r\n//         uint voteCount;\r\n//     }\r\n\r\n//     mapping (uint => Candidate) public candidate;\r\n//     mapping (address => bool) public voters;\r\n\r\n//     uint public candidatesCount = 0;\r\n//     uint public startTime;\r\n//     uint public endTime;\r\n\r\n//     event VotedEvent(uint indexed_candidateId);\r\n\r\n//     constructor(uint _durationInMinutes){\r\n//         startTime = block.timestamp;\r\n//         endTime = startTime + (_durationInMinutes *1 minutes);\r\n\r\n//         addCandidate(\"Bob\");\r\n//         addCandidate(\"Alice\");\r\n\r\n//     }\r\n\r\n//     function addCandidate(string memory _name) private {\r\n//         candidatesCount++;\r\n//         candidates[candidatesCount]= Candidate(candidatesCount, _name, 0);\r\n//     }\r\n\r\n//     function vote(uint _candidateId) public{\r\n//         require(block.timestamp >= startTime && block.timestamp <= endTime, \"Voting is not allowed at this time.\");\r\n//         require(!voters[msg.sender],\"You have already voted\");\r\n//         require(_candidateId> 0 && _candidateId <= candidatesCount, \"You have entered an Invalid Id\");\r\n\r\n//         voters[msg.sender]= true;\r\n//         candidates[_candidateId].voteCount++;\r\n//         emit VotedEvent(_candidateId);\r\n//     }\r\n\r\n//     function getallCandidate() public view returns (Candidate memory){\r\n//         Candidate[] memory candidateArray = new Candidate[](candidatesCount);\r\n//         for (unint i)=1; i<= candidatesCount; i++){\r\n//             candidateArray[i-1]= candidates[i];\r\n//         }\r\n//         return candidateArray;\r\n//     }\r\n\r\n//     function getCurrentleader() public view returns (string memory){\r\n//             uint maxVotes =0;\r\n//             uint leadingCandidateId = 0;\r\n\r\n//             for(uint i= 1; i <= candidatesCount; i++){\r\n//                 if(candidates[i].voteCount > maxVotes){\r\n//                     maxVotes = candidates[i].voteCount;\r\n//                     leadingCandidateId =i;\r\n//                 }\r\n\r\n//                 if(leadingCandidateId ==0){\r\n//                     return \"No votes cast yet!\";\r\n//                 }\r\n//                 return candidates[leadingCandidateId.name];\r\n//             }\r\n//     }\r\n// }\r\n\r\n// Dfinit la version du compilateur Solidity  utiliser\r\npragma solidity ^0.8.0;\r\n\r\n// Dfinit un contrat appel VotingSystem\r\ncontract VotingSystem {\r\n    \r\n    // Structure pour reprsenter un candidat\r\n    struct Candidate {\r\n        uint id;\r\n        string name;\r\n        uint voteCount;\r\n    }\r\n\r\n    // Mapping pour stocker les candidats par leur ID\r\n    mapping (uint => Candidate) public candidates;\r\n    \r\n    // Mapping pour suivre si un lecteur a vot ou non\r\n    mapping (address => bool) public voters;\r\n\r\n    // Compte total des candidats\r\n    uint public candidatesCount = 0;\r\n\r\n    // Temps de dbut et de fin des lections\r\n    uint public startTime;\r\n    uint public endTime;\r\n\r\n    // vnement mis lorsqu'un vote a lieu\r\n    event VotedEvent(uint indexed candidateId);\r\n\r\n    // Constructeur du contrat, prend la dure des lections en minutes\r\n    constructor(uint _durationInMinutes){\r\n        // Enregistre le temps de dbut des lections\r\n        startTime = block.timestamp;\r\n        // Calcule le temps de fin en ajoutant la dure spcifie\r\n        endTime = startTime + (_durationInMinutes * 1 minutes);\r\n\r\n        // Ajoute deux candidats par dfaut\r\n        addCandidate(\"Bob\");\r\n        addCandidate(\"Alice\");\r\n    }\r\n\r\n    // Fonction interne pour ajouter un candidat\r\n    function addCandidate(string memory _name) private {\r\n        // Incrmente le nombre total de candidats\r\n        candidatesCount++;\r\n        // Ajoute le candidat  la mapping des candidats\r\n        candidates[candidatesCount] = Candidate(candidatesCount, _name, 0);\r\n    }\r\n\r\n    // Fonction publique pour permettre  un lecteur de voter pour un candidat\r\n    function vote(uint _candidateId) public {\r\n        // Vrifie si le vote est autoris pendant la priode d'lection\r\n        require(block.timestamp >= startTime && block.timestamp <= endTime, \"Voting is not allowed at this time.\");\r\n        // Vrifie si l'lecteur n'a pas dj vot\r\n        require(!voters[msg.sender], \"You have already voted\");\r\n        // Vrifie si l'ID du candidat est valide\r\n        require(_candidateId > 0 && _candidateId <= candidatesCount, \"You have entered an invalid Id\");\r\n\r\n        // Enregistre que l'lecteur a vot\r\n        voters[msg.sender] = true;\r\n        // Incrmente le nombre de votes pour le candidat choisi\r\n        candidates[_candidateId].voteCount++;\r\n        // met l'vnement de vote\r\n        emit VotedEvent(_candidateId);\r\n    }\r\n\r\n    // Fonction pour rcuprer tous les candidats\r\n    function getAllCandidates() public view returns (Candidate[] memory) {\r\n        // Initialise un tableau dynamique pour stocker tous les candidats\r\n        Candidate[] memory candidateArray = new Candidate[](candidatesCount);\r\n        // Boucle pour rcuprer chaque candidat\r\n        for (uint i = 1; i <= candidatesCount; i++) {\r\n            candidateArray[i - 1] = candidates[i];\r\n        }\r\n        // Retourne le tableau de candidats\r\n        return candidateArray;\r\n    }\r\n\r\n    // Fonction pour obtenir le candidat en tte\r\n    function getCurrentLeader() public view returns (string memory) {\r\n        // Variables pour suivre le candidat avec le plus de votes\r\n        uint maxVotes = 0;\r\n        uint leadingCandidateId = 0;\r\n\r\n        // Boucle pour trouver le candidat en tte\r\n        for (uint i = 1; i <= candidatesCount; i++) {\r\n            if (candidates[i].voteCount > maxVotes) {\r\n                maxVotes = candidates[i].voteCount;\r\n                leadingCandidateId = i;\r\n            }\r\n        }\r\n\r\n        // Si aucun vote n'a t mis, retourne un message indiquant cela\r\n        if (leadingCandidateId == 0) {\r\n            return \"No votes cast yet!\";\r\n        }\r\n\r\n        // Retourne le nom du candidat en tte\r\n        return candidates[leadingCandidateId].name;\r\n    }\r\n}\r\n",
  "sourcePath": "C:\\Users\\maxim\\Voting_dapp\\contracts\\Voting_dapp.sol",
  "compiler": {
    "name": "solc",
    "version": "0.8.19+commit.7dd6d404.Emscripten.clang"
  },
  "schemaVersion": "3.4.13",
  "updatedAt": "2023-12-21T11:14:32.554Z",
  "networkType": "ethereum",
  "devdoc": {
    "kind": "dev",
    "methods": {},
    "version": 1
  },
  "userdoc": {
    "kind": "user",
    "methods": {},
    "version": 1
  }
}